:020000040800F2
:10000000A0040020D5000008550D00087D0C000854
:1000100000000000000000000000000000000000E0
:10002000000000000000000000000000590D000862
:100030000000000000000000570D00085B0D0008E4
:10004000E7000008E7000008E7000008E7000008F4
:10005000E700000809020008E7000008E7000008C0
:10006000E7000008E7000008E7000008E7000008D4
:10007000E7000008E7000008E7000008E7000008C4
:10008000E7000008E7000008E7000008E7000008B4
:10009000E7000008E7000008E7000008E7000008A4
:1000A000E7000008E7000008E7000008E700000894
:1000B000E7000008E7000008E7000008044885465C
:1000C00000F090F800480047CB110008C046C04639
:1000D000A00400200448804704480047FEE7FEE7EC
:1000E000FEE7FEE7FEE7FEE7CD0D0008BD000008D5
:1000F00030B50B46014600202022012409E00D46C0
:10010000D5409D4205D31D469540491B2546954047
:1001100040191546521E002DF1DC30BDF0B51FB45C
:100120000646002082B005464024019100901BE065
:10013000019922460F46304600F020F8049A059BAC
:10014000801A994110D310461946224600F039F81A
:10015000361A8F410197224601200021009F00F0AE
:1001600030F838184D4100902046641E0028DFDC2E
:10017000019B00982946324607B0F0BD10B5202AF1
:1001800004DB0846203AD040002110BD0B46D34086
:10019000D0402024A21A91400843194610BDD2B283
:1001A00001E00270401C491EFBD270470022F6E7B6
:1001B00010B513460A4604461946FFF7F0FF2046DD
:1001C00010BD10B5202A04DB0146203A91400020E2
:1001D00010BD914020239C1A0346E34019439040F0
:1001E00010BD0000064C0125064E05E0E36807CC73
:1001F0002B430C3C98471034B442F7D3FFF762FF0F
:10020000F41100081412000810B5024800F006F8B6
:1002100010BD00000000002072B6FEE70178012248
:10022000C906C90E054B8A405969114204D05A616A
:100230004068002800D000477047000000040140DB
:10024000FCB500230124A6E027462A469F403A40F9
:1002500073D04D68012D05D0022D03D0112D01D092
:10026000122D16D185680326AC465D00AE46AE4021
:100270006546B543AC46CE687546AE4065462E43EE
:10028000866046680D79BE43ED06ED0F9D4035430F
:100290004560C6685F000325BD40AE46AE433546A7
:1002A0008E68BE402E43C6604E68022E01D0122ECC
:1002B00014D1DE08B60036180196366A5D07B446DA
:1002C000EE0E0F25B54000966646AE43B4460D6966
:1002D000009EB54066462E43019D2E620668754617
:1002E000AE430D79AD07AD0FBD40354305604D6898
:1002F000ED004FD52B4DAE692643AE61AD699E082A
:10030000ED07ED0F0095284DB6007519AC46AD68A8
:100310009E07360F0F27B740BD430927FF06B84297
:1003200001D1002715E0214FB84201D1012710E08B
:100330001F4FB84202D102270BE02BE01D4FB842FD
:1003400001D1032705E01C4FB84201D1042700E08A
:100350000527B7402F436546AF60184E35684F6894
:100360009543FF0300D51543356075684F68954385
:10037000BF0300D515437560B5684F689543FF020C
:1003800000D51543B560F5684F689543BF0200D5A9
:100390001543F5605B1C0A681546DA4000D053E748
:1003A000FCBD0000001002400000014000040048B5
:1003B00000080048000C00480010004800040140FC
:1003C000002A01D0816170478162704701488068CE
:1003D00070470000080000200248816802788918F0
:1003E000816070470800002010B50648016810229F
:1003F00011430160002000F007F800F027F800200A
:1004000010BD00000020024070B504460D4D7D2057
:100410002978C000FFF76CFE01460B480068FFF723
:1004200067FE00F0ADFB002809D1042C07D20022A2
:100430002146401E00F02AF800206C6070BD0120AB
:1004400070BD0000080000201400002008B5084816
:100450008169012211438161816911400091C26962
:1004600001040A43C261C0690840009008BD000051
:1004700000100240002805DBC106C90E012088409B
:10048000014908607047000000E100E010B500F08D
:100490006BFE10BDF8B504460068434DC00352D54D
:1004A000E8690026C00007D4E96928040143E9612E
:1004B000E9690140012600913C480168C90510D452
:1004C0000168821511430160FFF780FF074604E0D1
:1004D000FFF77CFFC01B642824D834480068C0059F
:1004E000F6D5286A03273F02384020D0616839409A
:1004F00081421CD0286A2A6AB843012109040A43B0
:100500002A622A6A8A432A622862C0070FD0FFF74C
:100510005DFF009008E0FFF759FF0099411A244859
:10052000814201D90320F8BD286A8007F3D5286AE3
:100530006168B84308432862002E04D0E8690121AD
:1005400009078843E8612078C00705D0286BA168B7
:1005500080088000084328632078800706D5286B30
:10056000032109048843E1680843286320684003A5
:1005700006D5286B03218904884321690843286331
:100580002078800605D5286B1021884361690843CF
:1005900028632088400505D5286B40218843A16940
:1005A000084328630020F8BD00100240007000409E
:1005B00088130000F8B50F4606005FD03D4D28684F
:1005C000C007C00FB84209D228684008400038432D
:1005D00028602868C007C00FB8424FD13068364C39
:1005E00081070CD5400704D560680721090208433C
:1005F00060606068F0218843B168084360603078CB
:10060000C0072CD07068012810D0022811D0032810
:1006100012D021688907002930DA616889088900C9
:1006200001436160FFF7D2FE009011E02168890369
:10063000F1E721688901EEE7616BC903EBE7FFF79A
:10064000C5FE0099411A1D48814201D90320F8BD19
:1006500060680C210840716889008842EFD12868E1
:10066000C007C00FB8420BD9286840084000384383
:1006700028602868C007C00FB84201D00120F8BD2B
:100680003078400706D56068072109028843F16881
:100690000843606000F028F86168094A0906090FFC
:1006A000515CC840074908600020FFF7ADFE0020FC
:1006B000F8BD000000200240001002408813000036
:1006C000DC1100081400002004480549006849684E
:1006D000044A4905490F515CC84070471400002086
:1006E00000100240EC11000830B519A30FCB89B0FF
:1006F0006C460FC41AA30FCB0FC41D4A51680C20BF
:100700000B4603401B48042B05D01B4D082B04D07F
:100710000C2B00D1284609B030BD8B021B0F6C4654
:10072000E45CD26A04AB1207120FC9039A5C890F0A
:10073000022901D0032901D0002301E0002328462B
:100740000021FFF7EBFC214600F0F5FCE3E7000099
:1007500002030405060708090A0B0C0D0E0F101002
:100760000102030405060708090A0B0C0D0E0F1001
:100770000010024000127A00006CDC02FEB504009A
:1007800070D02078F94EFA4DC00748D0686800074D
:10079000800F01281FD068680007800F022804D14D
:1007A0006868C003800F022815D06168012919D03C
:1007B00001208004002901D0052917D02968B14300
:1007C0002960296881432960606800281BD0FFF7F1
:1007D000FDFD074613E02868800320D560680028E7
:1007E000CED01CE0286830432860EDE7296801433B
:1007F0002960F7E7FFF7EAFDC01B642870D8286876
:100800008003F7D50BE0FFF7E1FD074604E0FFF7B3
:10081000DDFDC01B6428F1D828688003F7D4207858
:1008200080073FD568680007800F14D0686800070C
:10083000800F022804D16868C003800F01280AD005
:10084000E068002828681ED0012108432860FFF7CF
:10085000BDFD07460CE0286880070CD5E06801283C
:1008600000D108E080E1FFF7B1FDC01B0228C5D828
:1008700028688007F7D52868F82188432169C900CE
:10088000084328600EE0400840002860FFF79EFD06
:10089000074604E0FFF79AFDC01B0228AED828687F
:1008A0008007F7D42078000723D5E0690028686A1C
:1008B0000FD0012108436862FFF788FD074604E076
:1008C000FFF784FDC01B022898D8686A8007F7D517
:1008D0000FE0400840006862FFF778FD074605E03A
:1008E000C3E0FFF773FDC01B022887D8686A800742
:1008F000F7D4207804274007002861DA002001900F
:10090000E869C00008D4E969B8060143E961E9690A
:10091000014001200091019096480168C90511D459
:100920000168821511430160FFF750FD009005E05A
:10093000FFF74CFD0099401A642898D88D4800684C
:10094000C005F5D5A06801280AD0002801D00528E7
:1009500011D0286A400840002862286AB84302E0A3
:10096000286A012108432862A068002812D0FFF7F6
:100970002DFD00900AE0286A38432862F0E7FFF76F
:1009800025FD0099411A7C4881426ED8286A80076B
:10099000F5D50DE0FFF71AFD009006E0FFF716FD14
:1009A0000099411A744881425FD8286A8007F5D4BB
:1009B0000198002804D0E969012000078143E9611A
:1009C0002078C00635D5606901280CD0401D686BC1
:1009D00024D038436863686B400840006863FFF7C1
:1009E000F5FC074622E0686B38436863686B0121B9
:1009F00008436863FFF7EAFC074604E0FFF7E6FCFC
:100A0000C01B022831D8686B8007F7D5686BF821C6
:100A10008843A169C900084368630AE0B843686372
:100A2000F4E7FFF7D3FCC01B02281ED8686B8007D1
:100A3000F7D42078800637D568680007800F032830
:100A400014D068680007800F022804D16868C003CA
:100A5000800F03280AD0206A0028686B16D0304324
:100A60006863FFF7B3FC06460CE062E0686BC00306
:100A70001AD5206A012877D116E0FFF7A7FC801B62
:100A8000022856D8686BC003F7D50DE0B043686301
:100A9000FFF79CFC064604E0FFF798FC801B022849
:100AA00047D8686BC003F7D4606A002866D06968CD
:100AB0000907890F022942D0012636060228286834
:100AC00005D0B0432860FFF781FC044633E0B04313
:100AD0002860FFF77BFC074604E0FFF777FCC01BAC
:100AE000022826D828688001F7D4E86A216B00091B
:100AF00000010843E862A16AE06A084369687B2252
:100B0000D203914308436860286830432860FFF7A8
:100B10005DFC044604E0FFF759FC001B022808D8DE
:100B200028688001F7D529E0FFF750FC001B022858
:100B300001D90320FEBD28688001F5D41EE00128FC
:100B4000F8D06868E96A0322D203A36A02409A4295
:100B50000AD10907226B090F914205D10F2189049F
:100B60000840E16A884209D00120FEBD0000010072
:100B70000010024000700040881300000020F4E7DD
:100B8000094910B5401E884201D9012010BD074C0B
:100B900060610321081F00F0E7FA0020A061072030
:100BA0002061002010BD0000FFFFFF0000E000E01A
:100BB00010B5040003D0A06F002802D007E0012088
:100BC00010BD002174200155204600F027F8242094
:100BD000A06720680168490849000160204600F0CC
:100BE0008DF90128ECD0606A002802D0204600F080
:100BF000EEF8206841680922D202914341602068E2
:100C000081682A2291438160206801680122114392
:100C10000160204600F040F910BD000010B586B01C
:100C2000044614216846FFF7C1FA12492068884239
:100C30001DD11148C269012149040A43C261C26938
:100C40000A40059242690A434261406908400590A2
:100C50000C200090022001900020029003200390BD
:100C60000120049009206946C006FFF7E9FA06B0A2
:100C700010BD00000044004000100240FEE70000EC
:100C8000F0B587B014216846FFF790FA2148426911
:100C90000121C9040A43426142690A40059242693E
:100CA000C9000A43426142690A40059242694911FA
:100CB0000A43426142690A400592426949000A4377
:100CC00042614069FF26084009270336FF06059068
:100CD000002231463846FFF773FB0F4801250024F8
:100CE00001906946009502943846FFF7A9FA0294EC
:100CF00069463846009601950394FFF7A1FA002251
:100D000011460520FFF7C2FB0520FFF7B3FB07B034
:100D1000F0BD0000001002400000111010B50C489A
:100D20000A490160E1214902416000218160C160FE
:100D300001618161C1610C22016242614162FFF780
:100D400037FF002801D0FFF767FA10BD00440040CC
:100D500018000020FEE77047704710B5FFF73CFB16
:100D600010BD10B598B034216846FFF71FFA002473
:100D70000D940E940F941C2111A81094FFF716FAED
:100D8000202000900120089009946846FFF7F6FCA7
:100D9000002801D072B6FEE707200D9003200E90C8
:100DA0000F94012110940DA8FFF704FC002801D036
:100DB00072B6FEE702201190149411A8FFF76AFBA7
:100DC000002801D072B6FEE718B010BD704710B50C
:100DD000818CC90707D001684A6801235B049A43E4
:100DE000836A1A434A60818C890707D501684A687B
:100DF00001231B049A43C36A1A434A60818C490742
:100E000007D501684A6801239B049A43036B1A4380
:100E10004A60818C090707D501684A680123DB0312
:100E20009A43436B1A434A60818CC90607D502680E
:100E3000916801231B039943836B19439160818C53
:100E4000890607D501688A6801235B039A43C36B4F
:100E50001A438A60818C490612D503685A680121B9
:100E60000905046C8A4322435A60026C8A4207D106
:100E70000268516803235B059943436C1943516031
:100E8000818C090607D501684A680123DB04806C60
:100E90009A4302434A6010BDF8B5044600268030EC
:100EA0000660FFF793FA054620680068124F0007B6
:100EB00009D501212B46002249052046009700F064
:100EC000EBF800280DD12068006840070BD5012100
:100ED0002B46002289052046009700F0DDF8002807
:100EE00001D00320F8BD2020A067E06726666034AB
:100EF00026750020F8BD0000FFFFFF0170B5044615
:100F000080682169E269084361690025114322680C
:100F100008431168544B194001431160206841682F
:100F2000032212039143E26811434160A169206AE0
:100F3000084321688A680B231B029A4302438A6094
:100F40004A4A20684A4990420AD1086B8007800FBC
:100F500036D0012821D0022821D0032832D10EE03A
:100F6000444A90420DD1096B0320000401402AD06D
:100F7000012000040FE0091A11D0814222D1022180
:100F800021E03D4A90420CD1096B032080040140CE
:100F900019D001208004091AEDD1042113E00821A1
:100FA00011E0364988420BD03549884208D035498E
:100FB000884205D03449884202D03449884201D160
:100FC000002100E010210120E369C003304A314EC6
:100FD000834223D1002906D0022907D0042907D053
:100FE000082937D108E0FFF76FFB03E0104603E064
:100FF000FFF77AFB002831D0616840004A0880186A
:10100000FFF776F880B201461039B14222D8214963
:10101000491C01400007400F08431DE0002906D08D
:10102000022907D0042907D0082913D108E0FFF7C7
:101030004BFB03E0104603E0FFF756FB00280DD002
:1010400061684A081018FFF753F880B2014610395A
:10105000B14201D9012501E02168C8600020606625
:10106000A066284670BD0000F369FFEF003801401C
:10107000001002400044004000480040004C004086
:10108000005000400014014000180140001C0140C5
:1010900000127A00EFFF0000FFB581B005460F4651
:1010A000044660350A9E39E0701C37D0FFF78EF990
:1010B0000499401AB04222D8002E20D0206801683E
:1010C00049072BD5C069C043000527D401202168FA
:1010D000C002086220680168FF22A13291430160CA
:1010E000206881684908490081602020A067E06786
:1010F0008034206000202875032005B0F0BD2068F2
:101100000168FF22A132914301602068816849088B
:10111000490081602020A067E067EBE72068C16993
:101120003846884305D0002103988142BCD0002076
:10113000E3E70121F8E7F8B5040C8BB2264682B24A
:101140005E430D0C1046370C5843360480190021BD
:10115000794116466E43370C36048019794126468C
:101160006E438919F8BD00008307FF22DB0E9A4009
:101170008907090E9940002808DB830809489B006D
:101180001B18186890430843186070470007000F49
:101190000838830804489B001B18D869904308430B
:1011A000D861704700E400E000ED00E002E008C80C
:1011B000121F08C1002AFAD170477047002001E0D1
:1011C00001C1121F002AFBD17047FFF70DF9FFF78D
:1011D000C8FDFFF755FDFFF7A1FDFEE70000000089
:1011E00000000000010203040607080900000000D7
:1011F000010203041412000800000020180000007F
:10120000AC1100082C12000818000020880400000F
:10121000BC110008000000000000000001000000F8
:0C122000040000000000000000127A0032
:04000005080000BD32
:00000001FF
