:020000040800F2
:10000000C80D00209D010008E7220008111F00080C
:10001000E5220008CD020008D337000800000000E8
:10002000000000000000000000000000F7220008AF
:10003000F503000800000000F5220008F92200087E
:10004000B7010008B7010008B7010008B7010008B0
:10005000B7010008B7010008B7010008B7010008A0
:10006000B7010008B7010008B7010008B701000890
:10007000B7010008B7010008B7010008B701000880
:10008000B7010008B7010008B7010008B701000870
:10009000B7010008B7010008B7010008B701000860
:1000A000B7010008B7010008B7010008B701000850
:1000B000B7010008B7010008B7010008B701000840
:1000C000B7010008B7010008B7010008B701000830
:1000D000B7010008B7010008B7010008B701000820
:1000E000B7010008B7010008B7010008B701000810
:1000F000B7010008B7010008B7010008B701000800
:10010000B7010008B7010008B7010008B7010008EF
:10011000B7010008B7010008B7010008B7010008DF
:10012000B7010008B7010008B7010008B7010008CF
:10013000B7010008B7010008B7010008B7010008BF
:10014000B7010008B7010008B7010008E92200085C
:10015000B7010008B7010008B7010008B70100089F
:10016000B7010008B7010008B7010008B70100088F
:10017000B7010008B7010008B7010008000000003F
:10018000B7010008B7010008DFF80CD000F08CF8C8
:100190000048004765380008C80D00200648804721
:1001A00006480047FEE7FEE7FEE7FEE7FEE7FEE75C
:1001B000FEE7FEE7FEE7FEE7B92300088901000835
:1001C0002DE9F05F0546002092469B46884606468C
:1001D000814640241BE0284641464746224600F01F
:1001E00053F853465A46C01A914110D31146184647
:1001F000224600F03AF82D1A67EB01084F462246D6
:100200000120002100F031F817EB00094E41201EBB
:10021000A4F10104DFDC484631462A464346BDE8E6
:10022000F09F40EA01039B0703D009E008C9121FB1
:1002300008C0042AFAD203E011F8013B00F8013BA0
:10024000521EF9D27047D2B201E000F8012B491ECC
:10025000FBD270470022F6E710B513460A46044663
:100260001946FFF7F0FF204610BD202A04DB203A94
:1002700000FA02F1002070479140C2F1200320FAF9
:1002800003F3194390407047202A04DB203A21FAF7
:1002900002F00021704721FA02F3D040C2F120029F
:1002A0009140084319467047064C074D06E0E06848
:1002B00040F0010394E8070098471034AC42F6D3AD
:1002C000FFF766FF6039000880390008FEE700008C
:1002D00070B50546D0F87803C46994F84E00032839
:1002E0001BD0042818D1217B284602F0E2FC01280B
:1002F00012D1217B284602F0C7FCA16A814214D0AA
:10030000628B824211D2091AA162216A08442062DA
:100310005FF0030084F84E0070BD237B628B28469B
:10032000216A02F071F80420F4E7002084F84E00FE
:10033000284602F0C5F970BDF8B50646D0F8780336
:100340000125C46994F84D0001280AD0022807D17C
:10035000617B304602F0ADFC012811D002281AD092
:10036000F8BD228B606A0095637B904200D882B210
:100370003046E16902F058F8022084F84D00F8BDDB
:10038000208B626A0021824208D9121A6262E369F4
:100390001844E06103D084F84D50F8BD616284F8E0
:1003A0004D10304602F08FF9F8BD000010B5002264
:1003B0004FEA020100EB8203521CC3F880130F2A9C
:1003C000F8D300224FF400738418521C84F81C11D7
:1003D0009A42F9D30170417001228270C0F8BC13B7
:1003E000027640238371417680F81C1380F81D2328
:1003F000002010BD70477047A12202742122427470
:100400000022428282820722C28202F080B900006A
:1004100070B5044600F0F0F80546601C02D00448B0
:100420000078044400F0E8F8401BA042FAD370BD05
:10043000080000202DE9F84F00224FF001080325A5
:100440004FF00F0E0B6808FA02F42340A3426ED15E
:100450004E68012E05D0022E03D0112E01D0122E8F
:1004600012D186684FEA420C05FA0CF7BE43CF68FA
:1004700007FA0CF7374387604668A6430C79C4F344
:100480000014944034434460C668570005FA07FCE2
:100490008C6826EA0C06BC403443C4604C68022CCD
:1004A00001D0122C13D1D40800EB8404A346D4F855
:1004B000209054074FEAD46A0EFA0AF629EA060990
:1004C0000E6906FA0AF646EA0906CBF820600668C5
:1004D0000C7926EA0C0604F00304BC4034430460A3
:1004E0004C68E40065D5364C266846F480462660A4
:1004F000246822F0030604F480440094314C344410
:10050000A446D4F808489607370F0EFA07F6B44306
:100510002D4EB04201D1002624E02C4EB04201D134
:1005200001261FE02A4EB04202D102261AE040E026
:10053000284EB04201D1032614E0274EB04201D12B
:1005400004260FE0254EB04201D105260AE0244ED4
:10055000B04201D1062605E0224EB04201D1072665
:1005600000E00826BE402643CCF808681E4E3468DA
:100570004F689C43FF0300D51C4334601A4C241D74
:1005800026684F689E43BF0300D51E432660164E63
:10059000083634684F689C43FF0200D51C43346022
:1005A000114E0C3634684F689C43BF0200D51C4383
:1005B0003460521C102AFFF445AFBDE8F88F0000EC
:1005C0004438024000300140000002400004024074
:1005D00000080240000C02400010024000140240DB
:1005E00000180240001C0240003C01400AB1816139
:1005F00070470904FBE7000001488068704700006D
:1006000008000020D0F8C00202F000BBD0F8C00201
:1006100002F011BB006802F02DBE006802F02EBE91
:1006200001EB810100EBC10090F85C00704701EB29
:10063000810100EBC100C06C704710B5044690F812
:10064000B802012809D0012084F8B802206802F01D
:1006500020FE002084F8B80210BD022010BD2DE954
:10066000FE430546DDE90B7095F8B842DDF828C079
:10067000012C1CD001EB81044FF0010905EBC404EF
:1006800085F8B892002684F83D6084F83830A4F8E4
:10069000400084F8391084F83F7002F07F0884F835
:1006A0003A805FEA026805D584F83B9004E00220B6
:1006B000BDE8FE8384F83B6084F83CC0CDF800C000
:1006C000CDE90170286802F045FE85F8B862EFE7D1
:1006D00070472DE9F04101EB8104DDE907E700EB0C
:1006E000C404DDF818C084F83B20022684F83F30AB
:1006F000BCF1000F0AD084F84260002553B1012BF1
:100700002BD0022B0FD0032B13D10CE0032584F840
:100710004250F2E7BCF1010F0BD152B9D7B9012217
:1007200084F8512003E0AAB194F85020AAB184F8CB
:100730004260C4E911E784F85C50E56484F839103C
:1007400084F85D50027C04F138010068BDE8F04196
:1007500002F07CBE94F85120E8E784F84250E8E7C4
:100760002DE9F04104460068064602F08EFD01289E
:100770006FD1206802F099FF00286AD0206802F04B
:1007800094FF800203D521684FF40010486120686F
:1007900002F08BFFC00203D521684FF4801048613E
:1007A000206802F082FF400103D521684FF080608D
:1007B0004861206802F079FF800702D52168022095
:1007C0004861206802F071FF800010D5D6F840041F
:1007D00020F02E00C6F840042046FFF717FF012145
:1007E000206802F047FF21684FF000504861206800
:1007F00002F05BFFC00102D5204601F0F5FA206847
:1008000002F053FF000705D5204600F0D0F821681C
:1008100008204861206802F048FF800124D5206844
:1008200002F010FE074600254FF0010815E000BF5A
:1008300005F00F0108FA01F038420DD006EB451023
:10084000D0F80005E9B20004204603D501F094F881
:1008500002E01CE001F0A6F96D1CA068A842E7D8F0
:1008600021684FF000704861206802F01EFFC0430D
:10087000C0060CD42068816921F0100181612046F6
:1008800001F00EFB2068816941F010018161BDE833
:10089000F08170B58AB0040005D094F8B9022568DB
:1008A000002618B107E001200AB070BD84F8B862D4
:1008B000204600F027F8032084F8B902E86BC00551
:1008C00000D42661206802F07FFC04F11001282288
:1008D0000D466846FFF7A5FC94E80F0002F01EFCE9
:1008E0000121206802F00CFF282229466846FFF704
:1008F00098FC94E80F0002F051FE012084F8B90240
:100900000020D1E730B587B0044614216846FFF7D0
:10091000A1FC2068B0F1A04F38D11D480024016827
:1009200041F00101016000681A4D00F001000590DE
:100930004FF40070CDE90004694628460294FFF7A1
:1009400079FD4FF4E05000900220CDE901040A2027
:10095000CDE9034069462846FFF76CFD0C48001DB1
:10096000016841F08001016009481430016841F4D8
:10097000804101600068002200F48040059011462B
:10098000432000F0A5FB432000F094FB07B030BDEE
:100990003038024000000240D0F8C00202F0D2B964
:1009A000D0F8C00202F0D2B9006802F090BED0F8D0
:1009B000C00202F082B910B5044690F8B8020128CE
:1009C0000DD0012084F8B802206802F02BFC012130
:1009D000206802F011FC002084F8B80210BD02204B
:1009E00010BD10B5044690F8B802012809D00120C6
:1009F00084F8B802206802F09BFE002084F8B80258
:100A000010BD022010BD000070B5040025D094F880
:100A10003D00002520B984F83C50204600F0B8F88D
:100A2000242084F83D002068016821F00101016064
:100A30002068016841F4004101602068016821F4E8
:100A40000041016000F0DCFC4D4A6168914201D830
:100A50004C4900E04C49884201D2012070BD4B490D
:100A60002368B0FBF1F15E6826F03F060E435E603E
:100A70006368934206D94FF4967359434FF47A73DF
:100A8000B1FBF3F12368491C1E6A26F03F0631438F
:100A900019626168914210D84900401EB0FBF1F222
:100AA000521CC2F30B02042A01D2042022E0B0FB44
:100AB000F1F0401CC0F30B001CE0A268F2B301EBA4
:100AC000C10303EB0116431EB3FBF6F35B1C43F4B7
:100AD00080431B0549D092B301EBC10202EB011127
:100AE000401EB0FBF1F0401CC0F30B0040F480400E
:100AF00040F400402168CA694CF6FF739A431043E2
:100B0000C861D4E9071001432068026822F0C002DE
:100B100011430160D4E9030101432068826848F26F
:100B2000FF339A4311438160D4E9050108432168EA
:100B3000CA6822F0FF021043C86001E00EE016E030
:100B40002068016841F0010101602564202084F8DB
:100B50003D00256384F83E50002070BD01EB410646
:100B6000431EB3FBF6F35B1CB3E70120C2E701EBC6
:100B70004101401EB0FBF1F0401CC0F30B00B7E791
:100B8000A086010080841E0000093D0040420F0045
:100B900010B586B0044614216846FFF75BFB144984
:100BA0002068884221D113480021026842F00202E5
:100BB0000260006800F0020005904FF41070009091
:100BC000122001900120CDE9020104200490694621
:100BD0000948FFF72FFC07481030016841F4001165
:100BE0000160006800F40010059006B010BD000020
:100BF0000054004030380240000402402DE9FF411B
:100C000004460068816800917749784E4FF040278C
:100C1000884201D1324600E03A469268019240682B
:100C20008846029001D1304600E038464068039083
:100C300060684FF00105B0F5007F1CD0D8B1900777
:100C400005D50398000602D5204601F093F90098D7
:100C5000C0070FD0029840067FD521682046CA6899
:100C6000E16A8B1CE3620A80618E491E6186618E97
:100C7000002967D071E00098800719D50298000616
:100C800016D5616A20468A1C626222680988D16092
:100C9000618D491E6185618D51B901684A6822F0F4
:100CA000A0024A60418E19B980F8415000F0A0F8C6
:100CB0000198C00705D00398400602D5204601F0F0
:100CC00029F90198400622D5039880061FD521688E
:100CD000414501D1304600E03846406820F06001CF
:100CE00001D1304600E0384641602068416821F07B
:100CF000A00141602068C1688068019084F841507B
:100D0000606C40F002006064204600F072F80098C9
:100D1000000767D50298800664D52068416821F0F5
:100D2000A00141602168414501D1304600E03846CC
:100D3000406820F0600000D03E4670602068806807
:100D4000009043E001684A6822F060024A60418DE9
:100D500019B980F8415000F04BF8009840061ED5B4
:100D6000029880061BD52068416821F0600141602F
:100D70002168414501D1304600E03846406820F006
:100D8000A00101D1304600E03846416084F841506E
:100D9000606C40F002006064204600F02AF8019880
:100DA00000071FD5039880061CD52168414501D155
:100DB000304600E03846406820F0A00000D03E46B3
:100DC00070602068416821F06001416084F8415002
:100DD000606C40F00400606404B02046BDE8F0415F
:100DE00000F007B8BDE8FF81003800400034004043
:100DF000704770472DE9F047040005D094F8410092
:100E00004FF0000818B109E00120BDE8F08784F830
:100E1000408051486063204600F0A6F8022684F81E
:100E200041602068C16940F6BF77B943C16120685D
:100E3000066260694FF4007902282FD0E06870B133
:100E40002025A068202800D86D00012000F072F94C
:100E5000216949451FD1E16819B1A90002E01025B7
:100E6000EFE7E900B0FBF1F000EB800061694000C2
:100E7000B0FBF1F0401D0A21B0FBF1F000F00101E0
:100E8000401A40080902821EFE2A09D3606C40F015
:100E900010006064B8E7B0FBF5F0E5E70220002140
:100EA00022690843024320680262D4E90101084331
:100EB000A269E168114308432168CA69BA43104333
:100EC00040F40060C861206A01283AD12348606379
:100ED00023482168234A4FF04023814201D1114623
:100EE00000E01946C96921EA070101D1154600E071
:100EF0001D46E9612168814201D1114600E0194691
:100F00000E622568854201D1114600E01946C96983
:100F10008EB2616849451BD0D1B100212789B4F850
:100F20000CC047EA0C07B4F818C04CEA010C47EAB9
:100F30000C07B9B2314341F40061854200D01A4632
:100F4000D161C4F84480012084F8410000205CE7AE
:100F50004FF48071E2E70000D51F0008FD0B000888
:100F6000003800400034004070B586B004461421BB
:100F70006846FFF76FF91C492068884232D11B4848
:100F80000024016841F400410160006800F4004061
:100F9000059016481038016841F0010101600168B0
:100FA00001F001010591016841F004010160006850
:100FB000022500F00400059010200090CDE90154B6
:100FC0000626CDE9034669460948FFF733FA4FF490
:100FD000A4500090CDE90154CDE903466946054887
:100FE000FFF728FA06B070BD003C004040380240D0
:100FF00000000240000802407047704702488168C4
:101000000278114481607047080000200B4810B539
:10101000016841F400710160016841F48061016080
:10102000016841F480710160032000F071F8002034
:1010300000F006F800F024F8002010BD003C02404B
:1010400070B50D4D04464FF47A712878B1FBF0F07D
:101050000A490968B1FBF0F000F07AFC48B9102C9D
:1010600007D200222146501E00F032F800206C60AA
:1010700070BD012070BD0000080000201400002099
:101080000B4882B0016841F480410160006800F4BF
:10109000804000900648001F016841F080510160C7
:1010A000006800F080500090072002B000F030B8D7
:1010B00044380240002809DB00F01F020121914062
:1010C0004009800000F1E020C0F8001170470000E6
:1010D000F0B40E4B1B680C46C3F30223C3F10705A3
:1010E000042D00D90425191D072901D2002300E091
:1010F000DB1E012606FA05F1491E214099409E405B
:10110000761E16403143F0BC02F064BB0CED00E0EB
:10111000064900F0070208684FF6FF03184040EA4E
:101120000220034A10430860704700000CED00E005
:101130000000FA0501460020012907D1104909687D
:1011400011F4000103D0012900D10E4870470C486A
:10115000001F01680068490200F03F0001D50A49FC
:1011600000E00A49064AB1FBF0F07C321168C1F395
:10117000881141431068C0F30270B1FBF0F0704772
:10118000083802400080BB0000127A000024F400FE
:101190002DE9F843054600684FF00109C1074FF0FB
:1011A000000601D1400727D5DFF80C81C8F8686038
:1011B000FFF722FA0746414C05E000BFFFF71CFA93
:1011C000C01B022857D820680001F7D46868810145
:1011D000287A41EA0070394984310860C8F868907B
:1011E000FFF70AFA074604E0FFF706FAC01B0228D9
:1011F00041D820680001F7D52878800752D52F48BC
:101200004030016841F08051016000682C4C00F0D2
:1012100080500090206840F480702060FFF7ECF967
:10122000074604E0FFF7E8F9C01B022823D820682E
:10123000C005F7D5214C7034206810F4407020D0E0
:10124000A98901F4407181421BD020681D4920F416
:101250004070C1F800900E6020602068C00710D078
:10126000FFF7CAF9064641F2883707E0FFF7C4F9ED
:10127000801BB84202D90320BDE8F88320688007AC
:10128000F4D5E9680D48C1F301220830032A0BD0D8
:10129000016821F4F81101602068A989C1F30B01EC
:1012A000084320600020E7E70268074B22F4F812A9
:1012B00019400A430260EFE700004742003802404D
:1012C00000700040400E4742FFFCFF0F2DE9F04741
:1012D0000E46050065D0DFF81481D8F80000F7B29B
:1012E00000F00F00B04207D288F80070D8F8000074
:1012F00000F00F00B04254D128683D4C810712D550
:10130000400703D5206840F4E050206028780007AB
:1013100003D5206840F4604020602068A96820F070
:10132000F000084320602878C0072DD03049686855
:101330000839012812D0022813D0032811D00968D7
:10134000890700292DDA216821F00301014321607A
:10135000FFF752F9814641F2883A0EE009688903A5
:10136000EFE709688901ECE7FFF746F9A0EB09010F
:10137000514502D90320BDE8F0872068696800F074
:101380000C00B0EB810FEFD1D8F80010404601F00F
:101390000F01B14207D90770006800F00F00B0429A
:1013A00001D00120E7E72878400705D52068E968E3
:1013B00020F4E050084320602878000706D5206814
:1013C000296920F4604040EAC100206000F028F85C
:1013D0002168084AC1F30311515CC84006490860FE
:1013E00006480068FFF72CFE0020C4E7003C0240DE
:1013F0000838024044390008140000200C00002086
:101400000448054900680968044AC1F38221515C17
:10141000C8407047140000200838024054390008C2
:10142000154810B5006810F00C02144813D0411094
:10143000042A0FD0082A0ED10F4C241F22682368DB
:1014400002F03F025B0207D52068C0F38810A0FBC2
:10145000010106E0084610BD2168C1F38811A1FB17
:1014600000010023FEF7ACFE2168C1F30141491CD5
:101470004900B0FBF1F010BD083802400024F40030
:10148000F0B51F4C16460D461D4B002102220327C6
:10149000283C0028186887B019D040F00400186074
:1014A000186800F00400059010020090CDE90121B9
:1014B000CDE9037169461348FEF7BCFF206845EA91
:1014C000C60120F078400843206007B0F0BD40F02E
:1014D00001001860186800F0010005904FF480705A
:1014E0000090CDE90121CDE9037169460648FEF778
:1014F000A1FF2068354320F0EC602843E4E70000BA
:101500003038024000080240000002402DE9F84F48
:10151000040076D02078DFF838A3CE4DC00749D03C
:10152000DAF800105046C1F38101012908D00068A3
:10153000C0F3810002280AD1281D0068400206D5A8
:101540002868800336D560680028E2D032E0606801
:10155000B0F5803F10D0B0F5A02F286810D020F44F
:1015600080302860286820F4802028606068A0B15E
:10157000FFF742F806460CE0286840F48030F4E7B4
:1015800040F480202860F7E7FFF736F8801B6428D6
:1015900073D828688003F7D50CE0FFF72DF80646CE
:1015A00005E000BFFFF728F8801B6428F0D8286802
:1015B0008003F7D42078DFF8A08280074FF000097D
:1015C0003ED5DAF80010504611F00C0F09D0006833
:1015D000C0F3810002280BD19D48001F0068400223
:1015E00006D42868800715D5E068012809D111E0E4
:1015F000E068B8B10120C8F80000FEF7FDFF06461C
:1016000005E020E1FEF7F8FF801B0228C0D828681B
:101610008007F7D52868216920F0F80040EAC1006A
:1016200028600DE0C8F80090FEF7E6FF064604E0EB
:10163000FEF7E2FF801B02281FD828688007F7D436
:101640002078000722D5824E844861696C3671B1DA
:1016500001210160FEF7D0FF074604E0FEF7CCFF52
:10166000C01B022809D830688007F7D50EE0C0F803
:101670000090FEF7C1FF074605E082E0FEF7BCFFE1
:10168000C01B02287DD830688007F7D42078400737
:1016900068D5DFF8BCB100270BF1380BDBF8000090
:1016A000C0000BD4DBF8001041F08051CBF80010E3
:1016B000DBF80000012700F080500090684E306891
:1016C000C00510D4306840F480703060FEF794FF9D
:1016D000009005E0FEF790FF0099401A022850D8CC
:1016E0003068C005F6D55A4EA068683601280FD07C
:1016F0000528306810D020F001003060306820F0FC
:1017000004003060A068B8B1FEF776FF00900FE0EB
:10171000306840F00100F4E740F004003060F7E783
:10172000FEF76AFF0099411A41F28830814266D87B
:1017300030688007F4D50EE0FEF75EFF009007E00A
:10174000FEF75AFF0099411A41F28830814256D87B
:1017500030688007F4D42FB1DBF8001021F08051FD
:10176000CBF80010A069D0B3DAF800205146C2F3DC
:101770008102022A4AD00228484607D0C8F86000F1
:1017800000E03CE0FEF738FF04463BE04746C8F87F
:101790006000FEF731FF064605E000BFFEF72CFFB4
:1017A000801B02282BD828688001F7D4D4E90701D0
:1017B0000843A16A2B4A490802EB0141626A41EAE7
:1017C0008211084394F82C1040EA01612048001F60
:1017D000016001203866FEF70FFF044605E034E0A3
:1017E000FEF70AFF001B022809D828688001F7D5F8
:1017F0002BE000BFFEF700FF001B022802D90320E8
:10180000BDE8F88F28688001F4D41EE00128F7D0E5
:101810000868E26900F48001914214D1226A00F064
:101820003F0191420FD147F6C071626A0140914277
:1018300009D1A26A00F44031914204D1E16A00F07A
:101840007060884201D00120DAE70020D8E700006C
:10185000083802400038024000004742800E4742EC
:10186000007000400000FFFF70B5040005D00025A7
:10187000A56294F8510010B106E0012070BD84F813
:101880005050204600F030F8022084F851002068C3
:10189000016821F040010160D4E901010843D4E965
:1018A00003121143084361690843218B01F400715D
:1018B0000843E1690843216A0843A16A0843216893
:1018C0000860A069042101EA1040616A08432168A8
:1018D00048602068C16921F40061C161656501202B
:1018E00084F85100002070BD10B586B00446142164
:1018F0006846FEF7AFFC1349206888421FD11248A2
:101900000021026842F480520260006800F48050B6
:1019100005900D481438026842F001020260006828
:1019200000F001000590E02000900220CDE90101C7
:101930000520CDE9031069460448FEF77BFD06B09B
:1019400010BD000000300140443802400000024059
:1019500010B5401EB0F1807F01D3012010BD4FF0C3
:10196000E02460610F21601701F034FF0020A061C6
:1019700007202061002010BD2DE9F05F07460068B8
:101980000E4600EB4114D4F808054FF0040B420753
:1019900001EB86004FF0050A4FF0100807EBC00579
:1019A00008D5C4F808B5D4F80C0540F00200C4F816
:1019B0000C0530E0D4F80805800601D5202028E089
:1019C000D4F808054FF0080900070FD5D4F80C0526
:1019D00040F00200C4F80C0585F85DA0C4F8088545
:1019E000C4F80895386801F054FC14E0D4F80805F0
:1019F000400510D5D4F80C0540F00200C4F80C05E1
:101A0000386801F046FCC4F8088585F85D904FF40D
:101A10008060C4F80805D4F8080580050ED5D4F810
:101A20000C0540F00200C4F80C05314604F5A16431
:101A3000386801F02EFC4FF4007090E0D4F80805EF
:101A40004FF00001C0074FF0010237D0386930B1C4
:101A5000A86CD4F81035C3F31203C01AE86485F8F3
:101A60005D20A965C4F8082595F83F0020B102283B
:101A700002D003280FD01AE0D4F80C0540F0020081
:101A8000C4F80C05314604F5A164386801F001FC86
:101A9000C4F800800BE0D4F8000540F00050C4F812
:101AA000000585F85C2031463846FEF711FE15F832
:101AB000500F80F001002870BDE8F09FD4F80805B1
:101AC000800735D5D4F80C0520F00200C4F80C05C9
:101AD00095F85D000223012808D0052809D00628C2
:101AE0000AD0082808D003281FD015E085F85C200C
:101AF00012E085F85CA00FE0A86D401CA8650328E3
:101B000013D9A96585F85CB0D4F8000520F08040B1
:101B100040F00040C4F80005C4F8083595F85C2092
:101B200031463846FEF7D4FDC6E785F85C30EBE772
:101B3000D4F80805000614D5D4F80C0540F00200CE
:101B4000C4F80C05A86D3146401CA865062085F830
:101B50005D0004F5A164386801F09BFB80202060E3
:101B6000AAE7D4F80805C006A6D595F83F000328D3
:101B700003D020B1022802D011E0A96505E0A965D3
:101B8000386960B9032085F85D00D4F80C0540F091
:101B90000200C4F80C053146386801F07AFBC4F83D
:101BA000088589E72DE9F047026802EB4114D4F873
:101BB00008254FF00403520709D5C4F80835D4F8B6
:101BC0000C0540F00200C4F80C05BDE8F087D4F81D
:101BD000082501EB810596064FF0000200EBC505D4
:101BE0004FF0020C15D52023C4F8083595F83D3088
:101BF000012BEAD185F83D2085F85CC0D4F80C258E
:101C000042F00202C4F80C250068BDE8F04701F07C
:101C100040BBD4F8086577064FF0010611D585F86A
:101C20005D3085F83D60AA65D4F80C2542F00202CB
:101C3000C4F80C25006804F5A16401F02AFB4020DB
:101C400010E0D4F80875BF050ED5D4F80C2542F085
:101C50000202C4F80C25006804F5A16401F019FB28
:101C60004FF400702060B0E7D4F80875FF070FD07C
:101C7000AA65D4F80C2542F00202C4F80C250068CD
:101C800004F5A16401F005FB266085F85D609CE722
:101C9000D4F808754FF005095FEA07784FF0080798
:101CA0000DD5C4F80875D4F80C2542F00202C4F82A
:101CB0000C25006801F0EDFA85F85D9085E7D4F811
:101CC00008854FF0100A5FEAC86818D5AA65032294
:101CD00085F85D2095F83D2022B995F83C200AB999
:101CE00085F83D60D4F80C2542F00202C4F80C25BA
:101CF000006804F5A16401F0CCFA5046B2E7D4F8CC
:101D000008855FEA08680FD5D4F80C2542F0020276
:101D1000C4F80C25006804F5A16401F0BAFA0620A5
:101D200085F85D0080209DE7D4F808855FEA485873
:101D300012D5D4F80C2542F00202C4F80C25006834
:101D400004F5A16401F0A5FAC4F800A04FF4806086
:101D5000206085F85D7038E7D4F80875BF0796D520
:101D6000D4F80C7527F00207C4F80C7595F85D706F
:101D7000012F0AD0032F17D0042F15D0052F16D00E
:101D8000062F17D0082F15D027E085F85C6095F84E
:101D90003F20022A01D0032A1FD195F8512082F05A
:101DA000010285F8512018E085F85CC015E085F83F
:101DB0005C9012E0AE6D761CAE65032E03D9AA6569
:101DC00085F85C3001E085F85CC0D4F8002522F08D
:101DD000804242F00042C4F80025C4F808C595F8D6
:101DE0005C20FEF775FCF0E67CB504680546D4F887
:101DF00040040190D4F8400420F02E000090019897
:101E000080070DD50198C00706D0A06920F00051C9
:101E1000A1612846FEF7F6FB009840F00200009012
:101E20000198000732D5009840F008000090019812
:101E300040071DD5A869022803D0E86801280CD006
:101E40000FE00198C0F341400228286803D0012127
:101E500001F010FC05E00221FAE74EF66020C4F81C
:101E600004042846FEF79CFD2846FEF7CBFB0DE058
:101E70002846FEF791FDD4F8400420F02E00C4F867
:101E800040042868816941F0005181610198800611
:101E9000009802D540F020000090C4F840047CBDBA
:101EA0002DE9F041024600680646016AC1F343434A
:101EB00001F00F07C1F30A14022B25D1002C23D007
:101EC00007EB870102EBC105696C00291CD0224693
:101ED00001F0EFFB686C20446864E86C2044E8641F
:101EE00006EB4710D0F81015084A11420CD0D0F874
:101EF000001521F0804141F00041C0F8001515F8AF
:101F0000500F80F001002870BDE8F0810000F81F3C
:101F1000FEE7000070B515490268154B4FF04024EC
:101F20008A4201D11A4600E02246D568C26A961C50
:101F3000C6621580428E521E4286428E002A14D1FD
:101F400002688A4201D1194600E02146496821F021
:101F5000600100D023465960418D002905D14FF022
:101F6000010180F84110FEF743FF70BD00380040CA
:101F70000034004070B5416A144B8A1C4262056807
:101F80000988134A4FF040249D4201D1154600E0D4
:101F90002546E960418D491E4185418D002914D1B6
:101FA0000168994201D1114600E02146496821F0BB
:101FB000A00100D022465160418E002905D14FF08A
:101FC000010180F84110FEF713FF70BD003800409A
:101FD000003400407CB5016804468868009094F89D
:101FE00041000125042834D10098C00718D0486862
:101FF000C043400614D4C9682046E26A1180E16AF1
:10200000891CE162618E491E6186618E41B9016859
:102010004A6822F060024A6080F84150FEF7ECFF07
:102020000098400615D520684168C943890610D438
:10203000416821F0600141602068C16880680190BA
:1020400084F84150606C40F0020060642046FEF766
:10205000D0FE94F84100032834D10098800719D5A8
:1020600021684868C043000614D4626A204612887A
:10207000CA60616A891C6162618D491E6185618DDA
:1020800041B901684A6822F0A0024A6080F84150D4
:10209000FEF7B3FF0098000714D520684168C943D4
:1020A00089060FD4416821F0A00141602068806852
:1020B000009084F84150606C40F004006064204659
:1020C000FEF797FE7CBD000020B1002201210248EE
:1020D000FEF78CBA0122F9E7000802402DE9F04F23
:1020E00087B014216846FEF7B5F857480024016808
:1020F00041F010010160016801F0100105910168D3
:1021000041F004010160016801F0040105910168DA
:1021100041F080010160016801F0800105910168D2
:1021200041F001010160016801F0010105910168C0
:1021300041F002010160016801F0020105910168AE
:1021400041F0080101600068002200F008000590DD
:1021500008213E48FEF74AFA012211463C48FEF7A4
:1021600045FA4FF21009002249463A48FEF73EFA76
:10217000082601250096CDE90154694633480394A9
:10218000FEF758F90095CDE90154694630480394AB
:10219000FEF750F900960226CDE901640527CDE946
:1021A000034769462A48FEF745F9DFF8AC800095F9
:1021B000DFF8A8B0CDE9018469465846FEF73AF940
:1021C0000420CDE90004DFF898A069465046029447
:1021D000FEF730F9A8020090CDE90164CDE903478C
:1021E00069465046FEF726F9CDF80090CDE9015436
:1021F000694618480394FEF71DF968020090CDE97E
:1022000001640394694612480494FEF713F9280206
:102210000090CDE901640394694658460494FEF7A2
:1022200009F92020CDE9000469460A480294FEF726
:1022300001F90096CDE9018469460448FEF7FAF8F1
:1022400007B0BDE8F08F00003038024000100240B7
:1022500000080240000C0240000012100000024082
:10226000000402400B480A494FF4007201604FF429
:102270008271416000218160C1600161C0E9051285
:10228000C1610162416281620A21C162FFF7ECBA59
:1022900000300140DC00002010B501220B490C4841
:1022A00000F093FC08B1FEF7A6F80A49084800F0D0
:1022B000D8FE08B1FEF79FF8054800F015FF00288A
:1022C00003D0BDE81040FEF796B810BDFD30000801
:1022D0003401002018000020014800F0F2BD000089
:1022E00034010020FEE770470148FEF739BA0000CC
:1022F0000005002070477047FEF780BE30B597B0EC
:1023000030216846FDF7A6FF14210CA8FDF7A2FFB7
:10231000002011901290139014902548016841F00C
:1023200080510160006800F08050159021480168DC
:1023300041F4804101600068012500F4804015905F
:10234000032000904FF4803001901020CDE903501D
:1023500002248004CDE90640082008904FF4A870BC
:10236000CDE9090407200B906846FFF7CFF80F204E
:10237000CDE90C0480200E904FF4A0500F90E002A5
:10238000109002210CA8FEF7A1FFC020CDE9120495
:10239000119511A8FEF7FCFE002211461046FFF72A
:1023A0006FF8002211460120FFF76AF817B030BD20
:1023B00040380240007000400548016841F4700157
:1023C000016003494FF000608039086070470000E9
:1023D00088ED00E010B500224FF6FF7300EB820499
:1023E000B4F88043240409D49A4205D000EB82005B
:1023F00041F40041C0F88013D0B210BD521CD2B2DB
:102400000B2AEBD31A46F7E77FB51C46012501AE30
:102410000023009586E80E0002232A46214600F09C
:10242000C7FC04B0002070BD7FB51D4690F81D3379
:10243000089C03B100240123CDE90031CDE9022439
:1024400002230022294600F0B3FC04B0002070BD36
:1024500070B50446D0F87803C16920464031FDF7D5
:10246000CBFF050004D1D4F8C823022120469047B1
:10247000284670BD70B50546D0F878030026C469BB
:10248000217839B1284600F01FF92178284600F05C
:10249000A3F92670217B39B1284600F015F9217B7C
:1024A000284600F099F92673617B39B1284600F07F
:1024B0000BF9617B284600F08FF96673D5F8780335
:1024C000C06920B101F0A6F9D5F87803C6610020F3
:1024D00070BDFEB50227054601233A46394600F095
:1024E00059F90646FF287ED00146284600F0C7FD70
:1024F000502001F0F1F9D5F878130446C86106EBD5
:10250000860000EBC60005EB400090F84A130A066F
:1025100003D56170B0F84C03608161782846FFF7FD
:1025200059FF2070014695F81D03638903228DE849
:102530000D0095F81C336278284600F04AFC21789B
:102540000022284600F012FC00231A460A212846E1
:1025500000F020F9FF2854D000EB800101EBC0000F
:1025600005EB400090F84A130A0604D5E173B0F871
:102570004C13618303E0A173B0F84C13218390F8EE
:1025800052130A0604D5E173B0F85403608303E0E4
:10259000A173B0F854032083A17B2846FFF71AFFEC
:1025A0006073E17B2846FFF715FF2073208B95F8B9
:1025B0001D1302260091CDE9016095F81C33A27B22
:1025C000617B284600F005FC608B95F81D13009197
:1025D000CDE9016095F81C33E27B217B284600F0B1
:1025E000F8FB002000E00CE084F84C000246617B20
:1025F000284600F0BBFB217B0022284600F0B6FBFA
:1026000000273846FEBD70472DE9F0410546D0F859
:10261000780301270026C4694FF0040894F84C00A1
:1026200005284AD2DFE800F00305163B42000027E8
:1026300043E02122A16C2A7420226A746E82AE8249
:1026400007222846EA8200F062F848B9022084F89E
:102650004C0032E004F140012846FDF7CDFE20B1E8
:1026600001282AD084F84C8027E084F84C60A06CC4
:1026700094F84410027991421FD194F8461082795F
:1026800091421AD194F845104279914215D1216CAA
:102690000068814211D12846FFF7B5FF0DE02846BA
:1026A000FDF74AFE2846FDF713FE06E00021284606
:1026B00000F00FF808B984F84C603846BDE8F081A6
:1026C000704700207047704710B500F096FA002060
:1026D00010BD8278012A07D10222027401224274BD
:1026E000002242828182C2820022114600F00FB88D
:1026F0007FB51C46012501AE0023009586E80E003B
:102700002A46214600F054FB04B0002070BD70B58D
:1027100004460120A3780546012B0CD0022B09D1D9
:10272000204600F014F9002158B1032809D00228EE
:1027300000D1A57070BDA160A28125760221A17093
:1027400070BDA570217670BD7FB51D4690F81D3314
:10275000089C03B100240123CDE90031CDE9022416
:1027600000231A46294600F023FB04B0002070BD68
:102770001FB500231446CDE900310822CDE902231C
:102780001A46214600F014FB04B0002010BDFDF7EE
:102790003FBE000070B50546002005F54D7500BF31
:1027A00000EB800404EBC00405EB4404E67B0A3430
:1027B0008E4201D0FF2909D1A679964201D0FF2A85
:1027C00004D1E4799C4206D0FF2B04D0401CC0B257
:1027D0000228E5D3FF2070BD0B2907D200EB810052
:1027E000B0F88013C1F30E01C0F8801300207047C9
:1027F00030B48578029C012D0FD141F08001017425
:102800000621417403214282B1EB122F02D140F222
:10281000094100E000218182C482224630BC194671
:10282000FFF775BF0A8803781A440A8001780844C4
:102830007047F8B50E4600F11C05009104462B4682
:102840004FF400720021FFF7D3FF070005D1324695
:10285000294604F54D7000F0C6FA3846F8BD38B583
:102860000D460091044600F58E734FF480720021EE
:10287000FFF7BEFF002839D194F81C1184F8221309
:1028800094F81D1184F82313B4F81E11A4F824132E
:1028900094F8201184F8261394F8211184F8271352
:1028A00094F8221184F8281394F8231184F829133A
:1028B000082D1BD9B4F82411A4F82A13B4F8261152
:1028C000A4F82C13B4F82811A4F82E1394F82A11A4
:1028D00084F8301394F82B1184F8311394F82C11E8
:1028E00084F8321394F82D1184F8331338BDF8B5F9
:1028F0001C461646009341F4407200F58E731D4647
:102900000021FFF775FF002814D16978032911D140
:1029100029788A1EA24200D814460021A2B2AD1C1A
:1029200004E06B5C891C06F8013B89B29142F8D344
:1029300000213170F8BD01004FF0000004D00129E2
:1029400001D0022901D002207047012070472DE9F3
:10295000F84F04460125007E0B262F464FF009084C
:102960004FF007094FF0050B4FF00D0A0C2819D254
:10297000DFE800F0AF060E26313D49616C7D8A9B91
:10298000627904F110012046FFF7F2FE022012E006
:102990006179204600F08DF9012804D0042872D016
:1029A000022870D095E0207CE18A00F0800021B1FF
:1029B00080283BD1032020768BE0802814D02FE0A4
:1029C000D4F8BC03E0812379A2892046A168FFF7EF
:1029D0008FFE0420EFE72179204600F06AF90128F4
:1029E00002D0052841D057E084F8188071E00097A4
:1029F0006379A2892046A168FFF7A6FED4F8BC033C
:102A0000E0810620D7E76179204600F052F90128DD
:102A100006D0052807D0022808D0042809D058E09D
:102A200084F8189055E00C2020761EE084F818B049
:102A30004FE026764CE00022237911462046FFF72E
:102A400057FED4F8BC03E0810820B4E72179204682
:102A500000F02FF9012804D0042824D0052804D040
:102A600037E084F818A0002533E0032531E0009713
:102A70000022637911462046FFF766FED4F8BC03B6
:102A8000E0810A2097E70EE06179204600F011F915
:102A9000012804D00228A7D0042804D019E000257A
:102AA00084F818A015E0267613E0607E401CC0B2C2
:102AB0006076022805D8204600F071F92776A770C5
:102AC00007E0D4F8C823062120469047002060760E
:102AD00002252846BDE8F88FFEB504460126407859
:102AE0000025374604F58E7208286CD2DFE800F026
:102AF00004161D434A53576208212046FFF7AFFED4
:102B0000002860D194F82903A071677094F81D1310
:102B10000091CDE9015094F81C3319E012212046B0
:102B2000FFF79DFE30BB022033E00121204600F07C
:102B3000B1FAF8B90220FFF72AFE84F81C730320CB
:102B40006070A07994F81D13CDE900153B46029002
:102B500021798022204600F03CF9A07994F81D13D9
:102B60000091CDE9015094F81C3361790022204690
:102B700000F02FF927E009212046FFF75AFE10BB8D
:102B8000042006E0B4F836132046FFF752FED0B911
:102B90000520607017E094F83013062502E094F8E1
:102BA0003113072521B1FF232046FFF7A0FE50B9BE
:102BB000657008E094F8321321B1FF232046FFF737
:102BC00096FE00B900263046FEBD70B50D460400E5
:102BD00011D084F8C0230020C4F87803C4F87C0323
:102BE0002046FDF7E3FB0DB1C4F8C853204600F0C2
:102BF00073F8002070BD022070BD10B5D0F8C4037A
:102C0000FDF71BFDBDE81040FFF795BE10B501783C
:102C100021B190F81F13012909D00AE0012180F8A1
:102C20001E13D0F8C82322B10421904701E00221ED
:102C30000170002010BD10B5044600F0B0F82179F5
:102C40002046FFF7C9FD61792046FFF7C5FD00204A
:102C500084F81E03D4F8C82312B1052120469047FA
:102C6000204600F093F803202070002010BD10B51E
:102C700090F8C003012802D10846FFF725FAC820C2
:102C8000FDF7C6FB002010BDD0F8C403FDF7CFBC94
:102C900010B50124D0F8C403FDF7BFFC20B1012812
:102CA00005D0022803D101E0002400E002242046E0
:102CB00010BDD0F8C403FDF7B3BCD0F8BC13491C59
:102CC000C0F8BC1301780B2905D1D0F8781300297E
:102CD00001D089690847704710B5044690F8C003D1
:102CE00001281CD10F484FF0A0410022C0F8C0427B
:102CF000C4F8C4030160082181600121C0E9031206
:102D00000221C0E90612FDF7C4FD08B1FDF773FB0F
:102D10000448FDF77FFC0146204600F024F800201F
:102D200010BD000000050020FEB508AF97E8700058
:102D30008DE87000D0F8C403FDF791FCBDE8FE40BB
:102D4000FFF7F9BD002180F81F137047012180F8BB
:102D50001F13704710B5D0F8C403FDF725FEBDE87A
:102D60001040FFF7E8BDC0F8BC137047D0F8C403AB
:102D700001EB810100EBC10090F83B1011B180F82C
:102D8000502001E080F851200020704710B5D0F8A5
:102D9000C403FDF710FEBDE81040FFF7CCBD10B531
:102DA000D0F8C403FDF71DFEBDE81040FFF7C3BD1A
:102DB0002DE9FF410DF1280898E8F0008DE8F000BA
:102DC000D0F8C403FDF785FC04B0BDE8F041FFF77F
:102DD000B2BDFEB508AF97E870008DE87000FFF750
:102DE000A3FF0020FEBD2DE9F84105460B782B70AE
:102DF0004B786B704B886B800B792B714B796B71B7
:102E00008B79AB71CB790846EB710027097A29726F
:102E1000092A54D90921ADF800104BE06946FFF7A3
:102E200001FD4178042943D107EB870101EBC7017C
:102E300005EB4108017888F80A10417888F80B10F2
:102E4000817888F80C10C17888F80D10017988F81D
:102E50000E10417988F80F10817988F81010C17927
:102E600008F10A0488F81110017A2172002615E091
:102E70006946FFF7D7FC417805290FD108EBC60159
:102E800002780A7542784A7582788A75C278CA755E
:102E900082880A838279761C8A76F6B22179B142D9
:102EA00004D96A88BDF800108A42E1D87F1CFFB2BD
:102EB000022F04D26988BDF800209142AED8BDE847
:102EC000F881FEB5022204468DF8002094F81F1305
:102ED000002031B9237823B12378032B01D00323B9
:102EE00023702378002508270D260C2B13D2DFE84A
:102EF00003F0061317ABB64694555C6471A494F8BE
:102F00001E03002807D001202070C820FFF73FFCD7
:102F10002046FFF71FFFA2E0012900D122709EE0AA
:102F20006420FFF734FC2046FFF7B2FE84F81D034F
:102F30000520207000212046FFF74CFA60718021A7
:102F40002046FFF747FA20710146A07994F81D2327
:102F50000092CDE9015094F81C3380222046FFF7FF
:102F600038FFA07994F81D130091CDE9015094F831
:102F70001C33617900222046FFF72BFF6FE02046CB
:102F8000FFF7AAFD00286AD184F8205394F8330390
:102F9000012801D007204CE0277060E0D4F8C82356
:102FA000D2B3012120469047F6E794F83913204622
:102FB00000F07EF880BB09203BE094F83B034FF023
:102FC0000A05800604D50121204600F07FF818BBD1
:102FD000257044E0D4F87C13F1B1C4F8785394F828
:102FE000432304EB8001D1F874130B79934201D190
:102FF000C4F87813401C10F0FF00F2D0D4F8780326
:10300000C8B1816820468847A8B906202070D4F846
:10301000C82303212046904721E0D4F8780350B11B
:103020000169204688478DF800009DF80000B0B97E
:103030000B20207013E0267011E0D4F8780370B1F3
:103040004169204688470AE02046FDF7AFF9D4F8E9
:10305000780320B1C16820468847C4F8785300201F
:10306000FEBD002211B1D0F87C3313B1022210460C
:1030700070470123C0F87C33C0F87413F7E70246A9
:10308000002092F838338B4202D982F8201370471F
:10309000022070478278012A06D10022027405239B
:1030A000437441828282C28200221146FFF72FBB05
:1030B0008278012A06D100220274092343744182D6
:1030C0008282C28200221146FFF721BB8278012A48
:1030D00006D1002202740323437441828282C28299
:1030E00000221146FFF713BB10B50446FFF74EFE52
:1030F00001212046FFF7BBFD002010BD01290AD0A9
:103100000548022906D0042903D0052903D103214B
:1031100000E00121017070470000002070B50446F6
:1031200006990A9E049D0D98012916D0E06840F08A
:103130004000E060204600F02BF8A16B1EB321F4A4
:103140008031A163012D07D1A16841F00601A16082
:10315000A16841F02001A16070BDA16B21F4803114
:10316000A163E168094A1140E160E16821F440117E
:10317000E160012803D1E06840F48010E06020465F
:1031800000F006F8DEE741F48031DAE7BFFFBDFF6B
:1031900001220C4902E0521C8A420BD80369002B21
:1031A000F9DA026942F001020261012204E0521CD4
:1031B0008A4201D9032070470369DB07F7D1002059
:1031C00070470000400D0300816821F0010181601B
:1031D0000020704700EB4110064AC0F81025D0F8D7
:1031E000001521F0804141F00041C0F80015002099
:1031F000704700000000088008B5D0F8402422F095
:103200002E020092D20405D4012909D1009941F47B
:10321000805103E021B9009921F48051C0F8401495
:10322000002008BD816841F00101816000207047E5
:10323000002110220261054A491C914201D9032054
:1032400070470369DB06F7D400207047400D030088
:103250000022202343EA811101610549521C8A4260
:1032600001D90320704703699B06F7D400207047FB
:10327000400D0300D0F8080480B2704708B5D0F8BC
:1032800040040090C0F3414008BD406900F00100D7
:10329000704700EB4111D1F800254FF47A73C2F367
:1032A00081426AB1022A0BD0D1F8002542F0804257
:1032B000C1F80025D0F8100410F47F0F2ED009E0DB
:1032C000D1F8002542F08042C1F80025C06A10F410
:1032D0007F0F07D0D1F8000540F00040C1F800058D
:1032E00000207047D1F8000520F00040C1F800052B
:1032F000D1F8000540F00040C1F80005D1F8000504
:1033000020F40040C1F80005012002E0401C984272
:10331000E6D8D1F80025002AF8DBE1E7D1F800056E
:1033200020F00040C1F80005D1F8000540F0004051
:10333000C1F80005D1F8000520F40040C1F80005EF
:10334000012002E0401C9842CAD8D1F80025002A8A
:10335000F8DBC5E72DE9F0430026DDE9078500EB42
:103360004114771EDDF82490C4F80875CDB1012D05
:1033700032D0022D15D0032D27D00126D0F8187495
:1033800001F00F0C012101FA0CF10F43C0F8187481
:10339000816941F00071816110062AD54FF4004027
:1033A00028E040F29D47C4F80C75170605D500BF0C
:1033B000D4F80C7547F4807718E0C76BFF05DDD5AE
:1033C000D4F80C7547F0600710E040F29D67C4F830
:1033D0000C751706ECD4D1E740F22527C4F80C751C
:1033E0001706CBD5D4F80C7547F4C077C4F80C7524
:1033F000C4E70020B8F1020F18D000214FF0FE57AB
:1034000007EA83534FF4F04707EAC22213434FF40D
:10341000402202EA85421343C9F30A0213430343DD
:103420000B43C4F80035032D03D008E04FF40031FE
:10343000E4E7D4F8000540F00050C4F80005304639
:10344000BDE8F083D0F8140480B27047F8B54C782A
:10345000C56B4FF48073ED054FF0000715D50D795E
:103460009DB912B1012A07D00FE04D79012D0CD181
:103470002146FFF7AFFE8CE000EB4415D5F80C6554
:1034800026F06006C5F80C654F710E695EB10D89B6
:103490002E44761EB6FBF5F6B6B29E4204D91E4601
:1034A0002B020B6100E00126CB78CBB30B89734371
:1034B000C1F810306FF06045C3F3120305EAC6454A
:1034C0002B438D7A4FF0C04606EA45752B4300EB3F
:1034D00044140546C4F8103512B1CB68C4F814354D
:1034E000D5F80834D4F8005543F3000325F000550F
:1034F000C4F80055D4F800555B1C45EA4373C4F882
:103500000035D4F80055244B1D601D6825F080451A
:103510001D60CD78002D1D6805D045F4004504E000
:10352000FFE70B69C6E725F400451D601D6845F0FF
:1035300000451D601B68C4F8003552BBCA7842BB09
:103540000A6932B3CB7933B1012B0FD0022B02D0F1
:10355000032B17D10AE0D21CC36AC2F38F029BB2BD
:1035600093420FD2826942F020020AE0D21CD0F8C6
:103570001034C2F38F029BB2934203D2826942F0AD
:103580008062826100970A8A93B24A78C96800F023
:103590000EF90020F8BD0000040000202DE9F041E4
:1035A0000025DDF8188017460446C0F8005E806BE1
:1035B00040F40010A063A06B20F40020A063A06B77
:1035C00020F48020A063E06BC00501D5032B04D05C
:1035D000D4F8000420F0040103E0D4F8000440F023
:1035E00004012046C4F800141021FFF731FE2046E4
:1035F000FFF71EFE0020461E07E000BF04EB40114F
:10360000C1F80865C1F80C55401C8742F6D8012165
:103610002046FFF7F1FDC820FCF7FAFEA5616661C0
:10362000E06BC00506D54FF4007060620C48A062E4
:103630000C4804E0802060620B48A0620B48C4F88C
:103640000001B8F1000F03D1A06940F01000A061A3
:10365000A06907490843A0610020BDE8F08100008F
:10366000000200010003E00080006000E000400074
:10367000080020A3D0F8002422F00302C0F80024A0
:10368000D0F8002401F003031A43C0F800240129F4
:1036900002D0022903D006E04BF6803101E041F26E
:1036A0007071C0F8041400207047416980690840B7
:1036B0007047D21C10B59308002200F5805002E03C
:1036C0000468521C10C19A42FAD3084610BD38B59E
:1036D0000446D0F8400420F02E00009040F48070A2
:1036E000C4F84004642004F58864FCF791FE009857
:1036F00020F4807020600A20FCF78AFE002038BD8C
:1037000010B5C26822F0C042C260012902D029B1BE
:10371000012010BDC16841F0005102E0C16841F0D4
:103720008041C1603220FCF773FE002010BD000014
:1037300030B504468068002520F00100A06010210B
:103740002046FFF785FD2046FFF772FD5FF0000081
:1037500004EB4011D1F8002522F0802242F0804293
:10376000C1F80025401C0F28F2D900204FF47A73CD
:1037700004EB4011D1F8002522F4004242F040420F
:10378000C1F800256D1C9D4203D8D1F80025002A00
:10379000F8DB401C0F28EBD94FF0FF30C4F81404BD
:1037A0006061A06840F00100A060002030BD10B54D
:1037B000029C64B9DB1C9C0800EB0230002300F57E
:1037C000805002E004C902605B1CA342FAD30020CF
:1037D00010BDFEE70907090E002804DB00F1E02018
:1037E00080F80014704700F00F0000F1E02080F82E
:1037F000141D704702E008C8121F08C1002AFAD140
:1038000070477047002001E001C1121F002AFBD160
:103810007047000010B5002821D0114B0022001F76
:10382000196803E0814203D80A4649680029F9D1A2
:1038300052B11368841A9C4204D100681844106085
:10384000104602E0506000E0186039B102680B1ABF
:10385000934203D10B681A4402604968416010BD6D
:1038600038000020FDF7D2FBFEF748FDFEF736FCDE
:1038700015481449002401601449C0E901144FF4AB
:103880008041C0E9034144618461C4610462FDF781
:10389000BBF80D480E49543001604915C0E90114C8
:1038A000C0E903410B49C0E90514C4610462FDF796
:1038B000A1FAFEF7D7FCFEF7EFFC00BFFEF70CFD08
:1038C000FCE700000054004040000020A0860100FA
:1038D000003C004000770100F0B50B30154D20F0A2
:1038E00007010024144A0FE003688B420BD38B427C
:1038F00005D95E1A43184768C3E9006700E04368CA
:10390000136002C004E0021D10680028ECD12046BC
:10391000002802D1286808B10020F0BD064A0748F7
:103920001060074A121A22F00702C0E900240120A1
:103930002860D7E73C00002038000020CC0700209A
:10394000C80900200000000000000000010203047C
:103950000607080900000000010203044344430075
:10396000803900080000002040000000F437000803
:10397000C039000840000020880D0000043800080D
:103980000000000000000000010000001000000026
:10399000000000000024F4005C3900080200000070
:1039A000D3240008752400085124000809260008C3
:1039B000C326000800000000000000000000000016
:040000050800018965
:00000001FF
